{
  "_format": "hh-sol-artifact-1",
  "contractName": "NFTMarketplaceSubscriptions",
  "sourceName": "contracts/NFTMarketplaceSubscriptions.sol",
  "abi": [
    {
      "inputs": [
        {
          "internalType": "uint256",
          "name": "_listingFee",
          "type": "uint256"
        },
        {
          "internalType": "uint256",
          "name": "_saleFee",
          "type": "uint256"
        }
      ],
      "stateMutability": "nonpayable",
      "type": "constructor"
    },
    {
      "anonymous": false,
      "inputs": [
        {
          "indexed": false,
          "internalType": "uint256",
          "name": "newListingFee",
          "type": "uint256"
        },
        {
          "indexed": false,
          "internalType": "uint256",
          "name": "newSaleFee",
          "type": "uint256"
        }
      ],
      "name": "FeesUpdated",
      "type": "event"
    },
    {
      "anonymous": false,
      "inputs": [
        {
          "indexed": true,
          "internalType": "uint256",
          "name": "listingId",
          "type": "uint256"
        },
        {
          "indexed": true,
          "internalType": "address",
          "name": "seller",
          "type": "address"
        }
      ],
      "name": "NFTCancelled",
      "type": "event"
    },
    {
      "anonymous": false,
      "inputs": [
        {
          "indexed": true,
          "internalType": "uint256",
          "name": "listingId",
          "type": "uint256"
        },
        {
          "indexed": true,
          "internalType": "address",
          "name": "seller",
          "type": "address"
        },
        {
          "indexed": false,
          "internalType": "address",
          "name": "nft",
          "type": "address"
        },
        {
          "indexed": false,
          "internalType": "uint256",
          "name": "tokenId",
          "type": "uint256"
        },
        {
          "indexed": false,
          "internalType": "uint256",
          "name": "price",
          "type": "uint256"
        }
      ],
      "name": "NFTListed",
      "type": "event"
    },
    {
      "anonymous": false,
      "inputs": [
        {
          "indexed": true,
          "internalType": "uint256",
          "name": "listingId",
          "type": "uint256"
        },
        {
          "indexed": true,
          "internalType": "address",
          "name": "buyer",
          "type": "address"
        },
        {
          "indexed": false,
          "internalType": "address",
          "name": "nft",
          "type": "address"
        },
        {
          "indexed": false,
          "internalType": "uint256",
          "name": "tokenId",
          "type": "uint256"
        },
        {
          "indexed": false,
          "internalType": "uint256",
          "name": "price",
          "type": "uint256"
        }
      ],
      "name": "NFTSold",
      "type": "event"
    },
    {
      "anonymous": false,
      "inputs": [
        {
          "indexed": true,
          "internalType": "address",
          "name": "oldOwner",
          "type": "address"
        },
        {
          "indexed": true,
          "internalType": "address",
          "name": "newOwner",
          "type": "address"
        }
      ],
      "name": "OwnershipTransferred",
      "type": "event"
    },
    {
      "anonymous": false,
      "inputs": [
        {
          "indexed": true,
          "internalType": "address",
          "name": "user",
          "type": "address"
        },
        {
          "indexed": false,
          "internalType": "uint256",
          "name": "planId",
          "type": "uint256"
        },
        {
          "indexed": false,
          "internalType": "uint256",
          "name": "expiry",
          "type": "uint256"
        }
      ],
      "name": "Subscribed",
      "type": "event"
    },
    {
      "inputs": [
        {
          "internalType": "string",
          "name": "name",
          "type": "string"
        },
        {
          "internalType": "uint256",
          "name": "priceNative",
          "type": "uint256"
        },
        {
          "internalType": "uint256",
          "name": "priceERC20",
          "type": "uint256"
        },
        {
          "internalType": "address",
          "name": "tokenAddress",
          "type": "address"
        },
        {
          "internalType": "uint256",
          "name": "duration",
          "type": "uint256"
        }
      ],
      "name": "addPlan",
      "outputs": [],
      "stateMutability": "nonpayable",
      "type": "function"
    },
    {
      "inputs": [
        {
          "internalType": "uint256",
          "name": "listingId",
          "type": "uint256"
        }
      ],
      "name": "buyNFT",
      "outputs": [],
      "stateMutability": "payable",
      "type": "function"
    },
    {
      "inputs": [
        {
          "internalType": "uint256",
          "name": "listingId",
          "type": "uint256"
        }
      ],
      "name": "cancelListing",
      "outputs": [],
      "stateMutability": "nonpayable",
      "type": "function"
    },
    {
      "inputs": [
        {
          "internalType": "address",
          "name": "user",
          "type": "address"
        }
      ],
      "name": "isActive",
      "outputs": [
        {
          "internalType": "bool",
          "name": "",
          "type": "bool"
        }
      ],
      "stateMutability": "view",
      "type": "function"
    },
    {
      "inputs": [
        {
          "internalType": "address",
          "name": "nft",
          "type": "address"
        },
        {
          "internalType": "uint256",
          "name": "tokenId",
          "type": "uint256"
        },
        {
          "internalType": "uint256",
          "name": "price",
          "type": "uint256"
        }
      ],
      "name": "listNFT",
      "outputs": [],
      "stateMutability": "payable",
      "type": "function"
    },
    {
      "inputs": [],
      "name": "listingCount",
      "outputs": [
        {
          "internalType": "uint256",
          "name": "",
          "type": "uint256"
        }
      ],
      "stateMutability": "view",
      "type": "function"
    },
    {
      "inputs": [],
      "name": "listingFee",
      "outputs": [
        {
          "internalType": "uint256",
          "name": "",
          "type": "uint256"
        }
      ],
      "stateMutability": "view",
      "type": "function"
    },
    {
      "inputs": [
        {
          "internalType": "uint256",
          "name": "",
          "type": "uint256"
        }
      ],
      "name": "listings",
      "outputs": [
        {
          "internalType": "address",
          "name": "seller",
          "type": "address"
        },
        {
          "internalType": "address",
          "name": "nft",
          "type": "address"
        },
        {
          "internalType": "uint256",
          "name": "tokenId",
          "type": "uint256"
        },
        {
          "internalType": "uint256",
          "name": "price",
          "type": "uint256"
        },
        {
          "internalType": "bool",
          "name": "active",
          "type": "bool"
        }
      ],
      "stateMutability": "view",
      "type": "function"
    },
    {
      "inputs": [],
      "name": "owner",
      "outputs": [
        {
          "internalType": "address",
          "name": "",
          "type": "address"
        }
      ],
      "stateMutability": "view",
      "type": "function"
    },
    {
      "inputs": [],
      "name": "planCount",
      "outputs": [
        {
          "internalType": "uint256",
          "name": "",
          "type": "uint256"
        }
      ],
      "stateMutability": "view",
      "type": "function"
    },
    {
      "inputs": [
        {
          "internalType": "uint256",
          "name": "",
          "type": "uint256"
        }
      ],
      "name": "plans",
      "outputs": [
        {
          "internalType": "string",
          "name": "name",
          "type": "string"
        },
        {
          "internalType": "uint256",
          "name": "priceNative",
          "type": "uint256"
        },
        {
          "internalType": "uint256",
          "name": "priceERC20",
          "type": "uint256"
        },
        {
          "internalType": "address",
          "name": "tokenAddress",
          "type": "address"
        },
        {
          "internalType": "uint256",
          "name": "duration",
          "type": "uint256"
        }
      ],
      "stateMutability": "view",
      "type": "function"
    },
    {
      "inputs": [],
      "name": "saleFee",
      "outputs": [
        {
          "internalType": "uint256",
          "name": "",
          "type": "uint256"
        }
      ],
      "stateMutability": "view",
      "type": "function"
    },
    {
      "inputs": [
        {
          "internalType": "uint256",
          "name": "planId",
          "type": "uint256"
        }
      ],
      "name": "subscribeERC20",
      "outputs": [],
      "stateMutability": "nonpayable",
      "type": "function"
    },
    {
      "inputs": [
        {
          "internalType": "uint256",
          "name": "planId",
          "type": "uint256"
        }
      ],
      "name": "subscribeNative",
      "outputs": [],
      "stateMutability": "payable",
      "type": "function"
    },
    {
      "inputs": [
        {
          "internalType": "address",
          "name": "",
          "type": "address"
        }
      ],
      "name": "subscriptions",
      "outputs": [
        {
          "internalType": "uint256",
          "name": "planId",
          "type": "uint256"
        },
        {
          "internalType": "uint256",
          "name": "expiry",
          "type": "uint256"
        }
      ],
      "stateMutability": "view",
      "type": "function"
    },
    {
      "inputs": [
        {
          "internalType": "address",
          "name": "newOwner",
          "type": "address"
        }
      ],
      "name": "transferOwnership",
      "outputs": [],
      "stateMutability": "nonpayable",
      "type": "function"
    },
    {
      "inputs": [
        {
          "internalType": "uint256",
          "name": "_listingFee",
          "type": "uint256"
        },
        {
          "internalType": "uint256",
          "name": "_saleFee",
          "type": "uint256"
        }
      ],
      "name": "updateFees",
      "outputs": [],
      "stateMutability": "nonpayable",
      "type": "function"
    }
  ],
  "bytecode": "0x608060405234801561001057600080fd5b5060405161157138038061157183398101604081905261002f9161004f565b600080546001600160a01b03191633179055600191909155600255610073565b6000806040838503121561006257600080fd5b505080516020909101519092909150565b6114ef806100826000396000f3fe6080604052600436106100fe5760003560e01c80639f8a13d711610095578063c8c82d2411610064578063c8c82d24146102aa578063d4c4eeb1146102ca578063de74e57b146102dd578063f046395a1461036b578063f2fde38b146103b457600080fd5b80639f8a13d714610205578063a9b07c2614610250578063ad05f1b414610266578063b16206161461027957600080fd5b806351ed8288116100d157806351ed8288146101845780636a1b7ecc146101975780636db79437146101ad5780638da5cb5b146101cd57600080fd5b80631059ee1114610103578063178021e314610125578063305a67a81461014e578063382d39bb1461016e575b600080fd5b34801561010f57600080fd5b5061012361011e366004611052565b6103d4565b005b34801561013157600080fd5b5061013b60025481565b6040519081526020015b60405180910390f35b34801561015a57600080fd5b50610123610169366004611052565b610663565b34801561017a57600080fd5b5061013b60045481565b610123610192366004611052565b61073d565b3480156101a357600080fd5b5061013b60015481565b3480156101b957600080fd5b506101236101c836600461106b565b610958565b3480156101d957600080fd5b506000546101ed906001600160a01b031681565b6040516001600160a01b039091168152602001610145565b34801561021157600080fd5b506102406102203660046110b5565b6001600160a01b0316600090815260056020526040902060010154421090565b6040519015158152602001610145565b34801561025c57600080fd5b5061013b60075481565b6101236102743660046110d9565b6109c9565b34801561028557600080fd5b50610299610294366004611052565b610c46565b60405161014595949392919061110e565b3480156102b657600080fd5b506101236102c536600461119d565b610d09565b6101236102d8366004611052565b610de4565b3480156102e957600080fd5b506103366102f8366004611052565b600660205260009081526040902080546001820154600283015460038401546004909401546001600160a01b03938416949390921692909160ff1685565b604080516001600160a01b0396871681529590941660208601529284019190915260608301521515608082015260a001610145565b34801561037757600080fd5b5061039f6103863660046110b5565b6005602052600090815260409020805460019091015482565b60408051928352602083019190915201610145565b3480156103c057600080fd5b506101236103cf3660046110b5565b610f85565b60045481106104195760405162461bcd60e51b815260206004820152600c60248201526b24b73b30b634b210383630b760a11b60448201526064015b60405180910390fd5b600081815260036020526040808220815160a081019092528054829082906104409061127a565b80601f016020809104026020016040519081016040528092919081815260200182805461046c9061127a565b80156104b95780601f1061048e576101008083540402835291602001916104b9565b820191906000526020600020905b81548152906001019060200180831161049c57829003601f168201915b5050509183525050600182015460208201526002820154604082015260038201546001600160a01b0390811660608084019190915260049093015460809092019190915290820151919250166105475760405162461bcd60e51b8152602060048201526013602482015272115490cc8c081b9bdd081cdd5c1c1bdc9d1959606a1b6044820152606401610410565b606081015160005460408084015190516323b872dd60e01b81523360048201526001600160a01b03928316602482015260448101919091529116906323b872dd906064016020604051808303816000875af11580156105aa573d6000803e3d6000fd5b505050506040513d601f19601f820116820180604052508101906105ce91906112b4565b5060405180604001604052808381526020018260800151426105f091906112ec565b90523360008181526005602090815260409091208351815592015160019092019190915560808201517ff94991dcbea6e8ac439cbc93bd9c62a4d39f04e0ad656df9a703f13552c2787f90849061064790426112ec565b6040805192835260208301919091520160405180910390a25050565b6000818152600660205260409020600481015460ff166106ba5760405162461bcd60e51b81526020600482015260126024820152714c697374696e67206e6f742061637469766560701b6044820152606401610410565b80546001600160a01b031633146107005760405162461bcd60e51b815260206004820152600a6024820152692737ba1039b2b63632b960b11b6044820152606401610410565b60048101805460ff19169055604051339083907fc7329a1de27b700f1e15035881d591a2a45f60d39946829bb9f78977d19520c090600090a35050565b6000818152600660205260409020600481015460ff166107945760405162461bcd60e51b81526020600482015260126024820152714c697374696e67206e6f742061637469766560701b6044820152606401610410565b806003015434146107d95760405162461bcd60e51b815260206004820152600f60248201526e496e636f727265637420707269636560881b6044820152606401610410565b6000612710600254346107ec9190611305565b6107f6919061131c565b90506000610804823461133e565b600080546040519293506001600160a01b03169184156108fc0291859190818181858888f1935050505015801561083f573d6000803e3d6000fd5b5082546040516001600160a01b039091169082156108fc029083906000818181858888f19350505050158015610879573d6000803e3d6000fd5b506001830154835460028501546040516323b872dd60e01b81526001600160a01b03928316600482015233602482015260448101919091529116906323b872dd90606401600060405180830381600087803b1580156108d757600080fd5b505af11580156108eb573d6000803e3d6000fd5b5050505060048301805460ff1916905560018301546002840154604080516001600160a01b0390931683526020830191909152348282015251339186917f5fafad85dec201c2e73b6a2bef6351129304a624ea8720ecd04cd7f04d83bc399181900360600190a350505050565b6000546001600160a01b031633146109825760405162461bcd60e51b815260040161041090611351565b6001829055600281905560408051838152602081018390527f5c6323bf1c2d7aaea2c091a4751c1c87af7f2864650c336507a77d0557af37a1910160405180910390a15050565b6001543414610a115760405162461bcd60e51b8152602060048201526014602482015273131a5cdd1a5b99c8199959481c995c5d5a5c995960621b6044820152606401610410565b60008111610a555760405162461bcd60e51b815260206004820152601160248201527005072696365206d757374206265203e203607c1b6044820152606401610410565b60405163020604bf60e21b81526004810183905230906001600160a01b0385169063081812fc90602401602060405180830381865afa158015610a9c573d6000803e3d6000fd5b505050506040513d601f19601f82011682018060405250810190610ac09190611374565b6001600160a01b031614610b165760405162461bcd60e51b815260206004820152601860248201527f4d61726b6574706c616365206e6f7420617070726f76656400000000000000006044820152606401610410565b600080546040516001600160a01b03909116913480156108fc02929091818181858888f19350505050158015610b50573d6000803e3d6000fd5b506040805160a081018252338082526001600160a01b03868116602080850182815285870189815260608088018a8152600160808a01818152600780546000908152600689528d90209b518c54908b166001600160a01b0319918216178d559651928c01805493909a169290961691909117909755915160028901559051600388015593516004909601805496151560ff19909716969096179095559354855191825293810187905293840185905290927fb0fe4922ac99799c17a4130d5c045ba2ecdf6e15b75b9ea84aaf0dc28724a42b910160405180910390a360078054906000610c3c83611391565b9190505550505050565b600360205260009081526040902080548190610c619061127a565b80601f0160208091040260200160405190810160405280929190818152602001828054610c8d9061127a565b8015610cda5780601f10610caf57610100808354040283529160200191610cda565b820191906000526020600020905b815481529060010190602001808311610cbd57829003601f168201915b505050600184015460028501546003860154600490960154949591949093506001600160a01b03909116915085565b6000546001600160a01b03163314610d335760405162461bcd60e51b815260040161041090611351565b6040805160a08101825286815260208082018790528183018690526001600160a01b038516606083015260808201849052600454600090815260039091529190912081518190610d8390826113f9565b50602082015160018201556040820151600282015560608201516003820180546001600160a01b0319166001600160a01b039092169190911790556080909101516004918201558054906000610dd883611391565b91905055505050505050565b6004548110610e245760405162461bcd60e51b815260206004820152600c60248201526b24b73b30b634b210383630b760a11b6044820152606401610410565b600081815260036020526040808220815160a08101909252805482908290610e4b9061127a565b80601f0160208091040260200160405190810160405280929190818152602001828054610e779061127a565b8015610ec45780601f10610e9957610100808354040283529160200191610ec4565b820191906000526020600020905b815481529060010190602001808311610ea757829003601f168201915b505050918352505060018201546020808301919091526002830154604083015260038301546001600160a01b031660608301526004909201546080909101528101519091503414610f4b5760405162461bcd60e51b8152602060048201526011602482015270125b98dbdc9c9958dd081c185e5b595b9d607a1b6044820152606401610410565b600080546040516001600160a01b03909116913480156108fc02929091818181858888f193505050501580156105ce573d6000803e3d6000fd5b6000546001600160a01b03163314610faf5760405162461bcd60e51b815260040161041090611351565b6001600160a01b038116610ff75760405162461bcd60e51b815260206004820152600f60248201526e496e76616c6964206164647265737360881b6044820152606401610410565b600080546040516001600160a01b03808516939216917f8be0079c531659141344cd1fd0a4f28419497f9722a3daafe3b4186f6b6457e091a3600080546001600160a01b0319166001600160a01b0392909216919091179055565b60006020828403121561106457600080fd5b5035919050565b6000806040838503121561107e57600080fd5b50508035926020909101359150565b6001600160a01b03811681146110a257600080fd5b50565b80356110b08161108d565b919050565b6000602082840312156110c757600080fd5b81356110d28161108d565b9392505050565b6000806000606084860312156110ee57600080fd5b83356110f98161108d565b95602085013595506040909401359392505050565b60a08152600086518060a084015260005b8181101561113c576020818a0181015160c086840101520161111f565b50600060c0828501015260c0601f19601f83011684010191505085602083015284604083015261117760608301856001600160a01b03169052565b8260808301529695505050505050565b634e487b7160e01b600052604160045260246000fd5b600080600080600060a086880312156111b557600080fd5b853567ffffffffffffffff808211156111cd57600080fd5b818801915088601f8301126111e157600080fd5b8135818111156111f3576111f3611187565b604051601f8201601f19908116603f0116810190838211818310171561121b5761121b611187565b816040528281528b602084870101111561123457600080fd5b8260208601602083013760006020848301015280995050505050506020860135935060408601359250611269606087016110a5565b949793965091946080013592915050565b600181811c9082168061128e57607f821691505b6020821081036112ae57634e487b7160e01b600052602260045260246000fd5b50919050565b6000602082840312156112c657600080fd5b815180151581146110d257600080fd5b634e487b7160e01b600052601160045260246000fd5b808201808211156112ff576112ff6112d6565b92915050565b80820281158282048414176112ff576112ff6112d6565b60008261133957634e487b7160e01b600052601260045260246000fd5b500490565b818103818111156112ff576112ff6112d6565b6020808252600990820152682737ba1037bbb732b960b91b604082015260600190565b60006020828403121561138657600080fd5b81516110d28161108d565b6000600182016113a3576113a36112d6565b5060010190565b601f8211156113f457600081815260208120601f850160051c810160208610156113d15750805b601f850160051c820191505b818110156113f0578281556001016113dd565b5050505b505050565b815167ffffffffffffffff81111561141357611413611187565b61142781611421845461127a565b846113aa565b602080601f83116001811461145c57600084156114445750858301515b600019600386901b1c1916600185901b1785556113f0565b600085815260208120601f198616915b8281101561148b5788860151825594840194600190910190840161146c565b50858210156114a95787850151600019600388901b60f8161c191681555b5050505050600190811b0190555056fea264697066735822122089ed1a36e6178ca9a02dfe5d00c9388b900652e52ebda4b71dbda5339153553564736f6c63430008140033",
  "linkReferences": {},
  "deployedLinkReferences": {}
}